{
  "contractName": "CrowdFunding",
  "abi": [
    {
      "inputs": [],
      "stateMutability": "nonpayable",
      "type": "constructor"
    },
    {
      "anonymous": false,
      "inputs": [
        {
          "indexed": false,
          "internalType": "string",
          "name": "Name",
          "type": "string"
        },
        {
          "indexed": false,
          "internalType": "uint256",
          "name": "AmountDonated",
          "type": "uint256"
        },
        {
          "indexed": false,
          "internalType": "uint256",
          "name": "Time",
          "type": "uint256"
        }
      ],
      "name": "Receipt",
      "type": "event"
    },
    {
      "inputs": [
        {
          "internalType": "string",
          "name": "",
          "type": "string"
        }
      ],
      "name": "Data",
      "outputs": [
        {
          "internalType": "string",
          "name": "Name",
          "type": "string"
        },
        {
          "internalType": "address",
          "name": "To",
          "type": "address"
        },
        {
          "internalType": "uint256",
          "name": "Deadline",
          "type": "uint256"
        },
        {
          "internalType": "uint256",
          "name": "Target",
          "type": "uint256"
        },
        {
          "internalType": "uint256",
          "name": "Raised",
          "type": "uint256"
        },
        {
          "internalType": "uint256",
          "name": "TokenId",
          "type": "uint256"
        },
        {
          "internalType": "uint256",
          "name": "Voters",
          "type": "uint256"
        }
      ],
      "stateMutability": "view",
      "type": "function"
    },
    {
      "inputs": [
        {
          "internalType": "address",
          "name": "",
          "type": "address"
        }
      ],
      "name": "Voted",
      "outputs": [
        {
          "internalType": "bool",
          "name": "",
          "type": "bool"
        }
      ],
      "stateMutability": "view",
      "type": "function"
    },
    {
      "inputs": [
        {
          "internalType": "address",
          "name": "",
          "type": "address"
        }
      ],
      "name": "VotingTo",
      "outputs": [
        {
          "internalType": "uint256",
          "name": "",
          "type": "uint256"
        }
      ],
      "stateMutability": "view",
      "type": "function"
    },
    {
      "inputs": [
        {
          "internalType": "uint256",
          "name": "",
          "type": "uint256"
        }
      ],
      "name": "create",
      "outputs": [
        {
          "internalType": "string",
          "name": "Name",
          "type": "string"
        },
        {
          "internalType": "address",
          "name": "To",
          "type": "address"
        },
        {
          "internalType": "uint256",
          "name": "Deadline",
          "type": "uint256"
        },
        {
          "internalType": "uint256",
          "name": "Target",
          "type": "uint256"
        },
        {
          "internalType": "uint256",
          "name": "Raised",
          "type": "uint256"
        },
        {
          "internalType": "uint256",
          "name": "TokenId",
          "type": "uint256"
        },
        {
          "internalType": "uint256",
          "name": "Voters",
          "type": "uint256"
        }
      ],
      "stateMutability": "view",
      "type": "function"
    },
    {
      "inputs": [
        {
          "internalType": "address",
          "name": "_To",
          "type": "address"
        },
        {
          "internalType": "string",
          "name": "_Name",
          "type": "string"
        },
        {
          "internalType": "uint256",
          "name": "_deadline",
          "type": "uint256"
        },
        {
          "internalType": "uint256",
          "name": "_Target",
          "type": "uint256"
        }
      ],
      "name": "CreateRequest",
      "outputs": [],
      "stateMutability": "nonpayable",
      "type": "function"
    },
    {
      "inputs": [
        {
          "internalType": "string",
          "name": "Name",
          "type": "string"
        },
        {
          "internalType": "uint256",
          "name": "tokenID",
          "type": "uint256"
        }
      ],
      "name": "DonateMoney",
      "outputs": [],
      "stateMutability": "payable",
      "type": "function"
    },
    {
      "inputs": [
        {
          "internalType": "uint256",
          "name": "TokenID",
          "type": "uint256"
        }
      ],
      "name": "Vote",
      "outputs": [],
      "stateMutability": "nonpayable",
      "type": "function"
    },
    {
      "inputs": [
        {
          "internalType": "uint256",
          "name": "TokenID",
          "type": "uint256"
        }
      ],
      "name": "Completed",
      "outputs": [
        {
          "internalType": "bool",
          "name": "",
          "type": "bool"
        }
      ],
      "stateMutability": "view",
      "type": "function"
    },
    {
      "inputs": [
        {
          "internalType": "uint256",
          "name": "TokenID",
          "type": "uint256"
        }
      ],
      "name": "transfermoney",
      "outputs": [],
      "stateMutability": "payable",
      "type": "function"
    },
    {
      "inputs": [
        {
          "internalType": "uint256",
          "name": "TokenID",
          "type": "uint256"
        }
      ],
      "name": "CalculateTheEligiblity",
      "outputs": [],
      "stateMutability": "nonpayable",
      "type": "function"
    },
    {
      "inputs": [],
      "name": "message",
      "outputs": [
        {
          "internalType": "string",
          "name": "",
          "type": "string"
        }
      ],
      "stateMutability": "pure",
      "type": "function"
    }
  ],
  "bytecode": "0x60806040526000805534801561001457600080fd5b5033600160006101000a81548173ffffffffffffffffffffffffffffffffffffffff021916908373ffffffffffffffffffffffffffffffffffffffff160217905550611b3a806100656000396000f3fe60806040526004361061009c5760003560e01c8063ba5dfb0411610064578063ba5dfb04146101a3578063cf64c165146101cc578063dcd6a5cd146101e8578063dfd517ed14610211578063e21f37ce1461024e578063e8e349d9146102795761009c565b806316a9aa39146100a15780632c8032d8146100de578063373a702914610107578063780900dc14610123578063a136f56314610166575b600080fd5b3480156100ad57600080fd5b506100c860048036038101906100c39190610e9a565b6102bc565b6040516100d59190610ee2565b60405180910390f35b3480156100ea57600080fd5b5061010560048036038101906101009190610f33565b6102dc565b005b610121600480360381019061011c91906110a6565b61042b565b005b34801561012f57600080fd5b5061014a60048036038101906101459190610f33565b610697565b60405161015d97969594939291906111a8565b60405180910390f35b34801561017257600080fd5b5061018d60048036038101906101889190610e9a565b610791565b60405161019a919061121e565b60405180910390f35b3480156101af57600080fd5b506101ca60048036038101906101c59190611239565b6107a9565b005b6101e660048036038101906101e19190610f33565b6109f7565b005b3480156101f457600080fd5b5061020f600480360381019061020a9190610f33565b610b05565b005b34801561021d57600080fd5b5061023860048036038101906102339190610f33565b610c71565b6040516102459190610ee2565b60405180910390f35b34801561025a57600080fd5b50610263610d08565b60405161027091906112bc565b60405180910390f35b34801561028557600080fd5b506102a0600480360381019061029b91906112de565b610d28565b6040516102b397969594939291906111a8565b60405180910390f35b60076020528060005260406000206000915054906101000a900460ff1681565b42600382815481106102f1576102f0611327565b5b90600052602060002090600702016002015410801561035d5750600160009054906101000a900473ffffffffffffffffffffffffffffffffffffffff1673ffffffffffffffffffffffffffffffffffffffff163373ffffffffffffffffffffffffffffffffffffffff16145b61039c576040517f08c379a0000000000000000000000000000000000000000000000000000000008152600401610393906113c8565b60405180910390fd5b6000600382815481106103b2576103b1611327565b5b90600052602060002090600702016006015490506000600283815481106103dc576103db611327565b5b906000526020600020015490506000606483836103f99190611446565b6104039190611477565b90506032811061041b57610416846109f7565b610425565b610423610d08565b505b50505050565b42600382815481106104405761043f611327565b5b9060005260206000209060070201600201541080156104b457506003818154811061046e5761046d611327565b5b906000526020600020906007020160030154346003838154811061049557610494611327565b5b9060005260206000209060070201600401546104b191906114d1565b11155b80156104c05750600034115b6104ff576040517f08c379a00000000000000000000000000000000000000000000000000000000081526004016104f690611573565b60405180910390fd5b6000600660003373ffffffffffffffffffffffffffffffffffffffff1673ffffffffffffffffffffffffffffffffffffffff1681526020019081526020016000205403610582576003818154811061055a57610559611327565b5b9060005260206000209060070201600601600081548092919061057c90611593565b91905055505b34600660003373ffffffffffffffffffffffffffffffffffffffff1673ffffffffffffffffffffffffffffffffffffffff16815260200190815260200160002060008282546105d191906114d1565b9250508190555034600382815481106105ed576105ec611327565b5b9060005260206000209060070201600401600082825461060d91906114d1565b9250508190555080600560003373ffffffffffffffffffffffffffffffffffffffff1673ffffffffffffffffffffffffffffffffffffffff168152602001908152602001600020819055507fd3d36f31da3d7e1941d7b9b7592d27d74d26fa5dcf3f8138ab4f3af3b0f366f182344260405161068b939291906115db565b60405180910390a15050565b600381815481106106a757600080fd5b90600052602060002090600702016000915090508060000180546106ca90611648565b80601f01602080910402602001604051908101604052809291908181526020018280546106f690611648565b80156107435780601f1061071857610100808354040283529160200191610743565b820191906000526020600020905b81548152906001019060200180831161072657829003601f168201915b5050505050908060010160009054906101000a900473ffffffffffffffffffffffffffffffffffffffff16908060020154908060030154908060040154908060050154908060060154905087565b60056020528060005260406000206000915090505481565b60036040518060e001604052808581526020018673ffffffffffffffffffffffffffffffffffffffff16815260200142856107e491906114d1565b81526020018381526020016000815260200160005481526020016000815250908060018154018082558091505060019003906000526020600020906007020160009091909190915060008201518160000190816108419190611825565b5060208201518160010160006101000a81548173ffffffffffffffffffffffffffffffffffffffff021916908373ffffffffffffffffffffffffffffffffffffffff16021790555060408201518160020155606082015181600301556080820151816004015560a0820151816005015560c0820151816006015550506003600054815481106108d3576108d2611327565b5b90600052602060002090600702016004846040516108f19190611933565b9081526020016040518091039020600082018160000190816109139190611960565b506001820160009054906101000a900473ffffffffffffffffffffffffffffffffffffffff168160010160006101000a81548173ffffffffffffffffffffffffffffffffffffffff021916908373ffffffffffffffffffffffffffffffffffffffff16021790555060028201548160020155600382015481600301556004820154816004015560058201548160050155600682015481600601559050506002600090806001815401808255809150506001900390600052602060002001600090919091909150556000808154809291906109ec90611593565b919050555050505050565b600160009054906101000a900473ffffffffffffffffffffffffffffffffffffffff1673ffffffffffffffffffffffffffffffffffffffff163373ffffffffffffffffffffffffffffffffffffffff1614610a5157600080fd5b60038181548110610a6557610a64611327565b5b906000526020600020906007020160010160009054906101000a900473ffffffffffffffffffffffffffffffffffffffff1673ffffffffffffffffffffffffffffffffffffffff166108fc60038381548110610ac457610ac3611327565b5b9060005260206000209060070201600401549081150290604051600060405180830381858888f19350505050158015610b01573d6000803e3d6000fd5b5050565b80600560003373ffffffffffffffffffffffffffffffffffffffff1673ffffffffffffffffffffffffffffffffffffffff16815260200190815260200160002054148015610ba3575060001515600760003373ffffffffffffffffffffffffffffffffffffffff1673ffffffffffffffffffffffffffffffffffffffff16815260200190815260200160002060009054906101000a900460ff161515145b610be2576040517f08c379a0000000000000000000000000000000000000000000000000000000008152600401610bd990611aba565b60405180910390fd5b6001600760003373ffffffffffffffffffffffffffffffffffffffff1673ffffffffffffffffffffffffffffffffffffffff16815260200190815260200160002060006101000a81548160ff02191690831515021790555060028181548110610c4e57610c4d611327565b5b906000526020600020016000815480929190610c6990611593565b919050555050565b600060038281548110610c8757610c86611327565b5b90600052602060002090600702016003015460038381548110610cad57610cac611327565b5b906000526020600020906007020160040154101580610cf0575060038281548110610cdb57610cda611327565b5b90600052602060002090600702016002015442115b15610cfe5760019050610d03565b600090505b919050565b60606040518060600160405280602a8152602001611adb602a9139905090565b600481805160208101820180518482526020830160208501208183528095505050505050600091509050806000018054610d6190611648565b80601f0160208091040260200160405190810160405280929190818152602001828054610d8d90611648565b8015610dda5780601f10610daf57610100808354040283529160200191610dda565b820191906000526020600020905b815481529060010190602001808311610dbd57829003601f168201915b5050505050908060010160009054906101000a900473ffffffffffffffffffffffffffffffffffffffff16908060020154908060030154908060040154908060050154908060060154905087565b6000604051905090565b600080fd5b600080fd5b600073ffffffffffffffffffffffffffffffffffffffff82169050919050565b6000610e6782610e3c565b9050919050565b610e7781610e5c565b8114610e8257600080fd5b50565b600081359050610e9481610e6e565b92915050565b600060208284031215610eb057610eaf610e32565b5b6000610ebe84828501610e85565b91505092915050565b60008115159050919050565b610edc81610ec7565b82525050565b6000602082019050610ef76000830184610ed3565b92915050565b6000819050919050565b610f1081610efd565b8114610f1b57600080fd5b50565b600081359050610f2d81610f07565b92915050565b600060208284031215610f4957610f48610e32565b5b6000610f5784828501610f1e565b91505092915050565b600080fd5b600080fd5b6000601f19601f8301169050919050565b7f4e487b7100000000000000000000000000000000000000000000000000000000600052604160045260246000fd5b610fb382610f6a565b810181811067ffffffffffffffff82111715610fd257610fd1610f7b565b5b80604052505050565b6000610fe5610e28565b9050610ff18282610faa565b919050565b600067ffffffffffffffff82111561101157611010610f7b565b5b61101a82610f6a565b9050602081019050919050565b82818337600083830152505050565b600061104961104484610ff6565b610fdb565b90508281526020810184848401111561106557611064610f65565b5b611070848285611027565b509392505050565b600082601f83011261108d5761108c610f60565b5b813561109d848260208601611036565b91505092915050565b600080604083850312156110bd576110bc610e32565b5b600083013567ffffffffffffffff8111156110db576110da610e37565b5b6110e785828601611078565b92505060206110f885828601610f1e565b9150509250929050565b600081519050919050565b600082825260208201905092915050565b60005b8381101561113c578082015181840152602081019050611121565b8381111561114b576000848401525b50505050565b600061115c82611102565b611166818561110d565b935061117681856020860161111e565b61117f81610f6a565b840191505092915050565b61119381610e5c565b82525050565b6111a281610efd565b82525050565b600060e08201905081810360008301526111c2818a611151565b90506111d1602083018961118a565b6111de6040830188611199565b6111eb6060830187611199565b6111f86080830186611199565b61120560a0830185611199565b61121260c0830184611199565b98975050505050505050565b60006020820190506112336000830184611199565b92915050565b6000806000806080858703121561125357611252610e32565b5b600061126187828801610e85565b945050602085013567ffffffffffffffff81111561128257611281610e37565b5b61128e87828801611078565b935050604061129f87828801610f1e565b92505060606112b087828801610f1e565b91505092959194509250565b600060208201905081810360008301526112d68184611151565b905092915050565b6000602082840312156112f4576112f3610e32565b5b600082013567ffffffffffffffff81111561131257611311610e37565b5b61131e84828501611078565b91505092915050565b7f4e487b7100000000000000000000000000000000000000000000000000000000600052603260045260246000fd5b7f5761697420666f72207468652063616d617069676e20746f20636f6d706c657460008201527f6500000000000000000000000000000000000000000000000000000000000000602082015250565b60006113b260218361110d565b91506113bd82611356565b604082019050919050565b600060208201905081810360008301526113e1816113a5565b9050919050565b7f4e487b7100000000000000000000000000000000000000000000000000000000600052601260045260246000fd5b7f4e487b7100000000000000000000000000000000000000000000000000000000600052601160045260246000fd5b600061145182610efd565b915061145c83610efd565b92508261146c5761146b6113e8565b5b828204905092915050565b600061148282610efd565b915061148d83610efd565b9250817fffffffffffffffffffffffffffffffffffffffffffffffffffffffffffffffff04831182151516156114c6576114c5611417565b5b828202905092915050565b60006114dc82610efd565b91506114e783610efd565b9250827fffffffffffffffffffffffffffffffffffffffffffffffffffffffffffffffff0382111561151c5761151b611417565b5b828201905092915050565b7f536f6d6574696e672077656e742077726f6e672066726f6d2075722073696465600082015250565b600061155d60208361110d565b915061156882611527565b602082019050919050565b6000602082019050818103600083015261158c81611550565b9050919050565b600061159e82610efd565b91507fffffffffffffffffffffffffffffffffffffffffffffffffffffffffffffffff82036115d0576115cf611417565b5b600182019050919050565b600060608201905081810360008301526115f58186611151565b90506116046020830185611199565b6116116040830184611199565b949350505050565b7f4e487b7100000000000000000000000000000000000000000000000000000000600052602260045260246000fd5b6000600282049050600182168061166057607f821691505b60208210810361167357611672611619565b5b50919050565b60008190508160005260206000209050919050565b60006020601f8301049050919050565b600082821b905092915050565b6000600883026116db7fffffffffffffffffffffffffffffffffffffffffffffffffffffffffffffffff8261169e565b6116e5868361169e565b95508019841693508086168417925050509392505050565b6000819050919050565b600061172261171d61171884610efd565b6116fd565b610efd565b9050919050565b6000819050919050565b61173c83611707565b61175061174882611729565b8484546116ab565b825550505050565b600090565b611765611758565b611770818484611733565b505050565b5b818110156117945761178960008261175d565b600181019050611776565b5050565b601f8211156117d9576117aa81611679565b6117b38461168e565b810160208510156117c2578190505b6117d66117ce8561168e565b830182611775565b50505b505050565b600082821c905092915050565b60006117fc600019846008026117de565b1980831691505092915050565b600061181583836117eb565b9150826002028217905092915050565b61182e82611102565b67ffffffffffffffff81111561184757611846610f7b565b5b6118518254611648565b61185c828285611798565b600060209050601f83116001811461188f576000841561187d578287015190505b6118878582611809565b8655506118ef565b601f19841661189d86611679565b60005b828110156118c5578489015182556001820191506020850194506020810190506118a0565b868310156118e257848901516118de601f8916826117eb565b8355505b6001600288020188555050505b505050505050565b600081905092915050565b600061190d82611102565b61191781856118f7565b935061192781856020860161111e565b80840191505092915050565b600061193f8284611902565b915081905092915050565b60008154905061195981611648565b9050919050565b81810361196e575050611a46565b6119778261194a565b67ffffffffffffffff8111156119905761198f610f7b565b5b61199a8254611648565b6119a5828285611798565b6000601f8311600181146119d457600084156119c2578287015490505b6119cc8582611809565b865550611a3f565b601f1984166119e287611679565b96506119ed86611679565b60005b82811015611a15578489015482556001820191506001850194506020810190506119f0565b86831015611a325784890154611a2e601f8916826117eb565b8355505b6001600288020188555050505b5050505050505b565b7f45697468657220796f7520617265206861766520616c726561647920766f746560008201527f64206f7220796f7520686176656e7420646f6e61746564000000000000000000602082015250565b6000611aa460378361110d565b9150611aaf82611a48565b604082019050919050565b60006020820190508181036000830152611ad381611a97565b905091905056fe536f7272792070656f706c652063686f7365206e6f7420746f20646f616e746520796f75206d6f6e6579a26469706673582212207060a08c0438b96b621db5e1c02371538861b4b4fb6a15914245b0172f7a0b9c64736f6c634300080f0033",
  "immutableReferences": {},
  "source": "//SPDX-License-Identifier: UNLICENSED\r\npragma solidity ^0.8.0;\r\ncontract CrowdFunding{\r\n     uint Index =0;\r\n     address owner;\r\n     uint[] Calculations;\r\n    constructor(){\r\n        owner = msg.sender;\r\n    }\r\n    event Receipt(string Name,uint AmountDonated,uint Time);\r\n    struct Create{\r\n        string Name;\r\n        address To;\r\n        uint Deadline;\r\n        uint Target;\r\n        uint Raised;\r\n        uint TokenId;\r\n        uint Voters;\r\n    }\r\n    Create[] public create;\r\n    mapping(string => Create)public Data;\r\n    mapping(address => uint)public VotingTo;\r\n    mapping(address => uint)Donated;\r\n    mapping(address => bool) public Voted;\r\n    function CreateRequest(address _To,string memory _Name,uint _deadline,uint _Target)public{\r\n        create.push(Create({Name:_Name,To:_To,Deadline:_deadline+block.timestamp,Target:_Target,Raised:0,TokenId:Index,Voters:0}));\r\n        Data[_Name]= create[Index];\r\n        Calculations.push(0);\r\n        Index++;\r\n    }\r\n    function DonateMoney(string memory Name,uint tokenID)public payable{\r\n        require(create[tokenID].Deadline < block.timestamp && create[tokenID].Raised+msg.value<=create[tokenID].Target && msg.value>0,\"Someting went wrong from ur side\");\r\n        if(Donated[msg.sender]==0){\r\n            create[tokenID].Voters++;\r\n        }\r\n        Donated[msg.sender]+=msg.value;\r\n        create[tokenID].Raised+=msg.value;\r\n        VotingTo[msg.sender] = tokenID;\r\n        emit Receipt(Name,msg.value,block.timestamp);\r\n    }\r\n    function Vote(uint TokenID) public{\r\n        require(VotingTo[msg.sender]==TokenID&&Voted[msg.sender]==false,\"Either you are have already voted or you havent donated\");\r\n        Voted[msg.sender] = true;\r\n        Calculations[TokenID]++;\r\n\r\n    }\r\n    function Completed(uint TokenID)public view returns(bool){\r\n        if(create[TokenID].Raised>=create[TokenID].Target || block.timestamp>create[TokenID].Deadline){\r\n            return true;\r\n        }\r\n        return false;\r\n    }\r\n    function transfermoney(uint TokenID) public payable{\r\n        require(msg.sender == owner);\r\n        payable(create[TokenID].To).transfer(create[TokenID].Raised);\r\n\r\n    }\r\n    function CalculateTheEligiblity(uint TokenID)public{\r\n        require(create[TokenID].Deadline < block.timestamp&&msg.sender==owner,\"Wait for the camapign to complete\");\r\n        uint TotalDonars = create[TokenID].Voters;\r\n        uint TotalVotes = Calculations[TokenID];\r\n        uint ans = (TotalVotes/TotalDonars)*100;\r\n        if(ans>=50){\r\n            transfermoney(TokenID);\r\n        }else{\r\n            message();\r\n\r\n        }\r\n    }\r\n    function message()public pure returns(string memory){\r\n        return \"Sorry people chose not to doante you money\";\r\n    }\r\n    \r\n    \r\n    \r\n}",
  "sourcePath": "C:\\Users\\91942\\Desktop\\CrowdFundingSGP Project\\contracts\\CrowdFunding.sol",
  "compiler": {
    "name": "solc",
    "version": "0.8.15+commit.e14f2714.Emscripten.clang"
  },
  "schemaVersion": "3.4.8",
  "updatedAt": "2022-09-10T12:08:15.640Z",
  "devdoc": {
    "kind": "dev",
    "methods": {},
    "version": 1
  },
  "userdoc": {
    "kind": "user",
    "methods": {},
    "version": 1
  }
}